:020000040800F2
:1000000000100020952100086D0700086F07000808
:1000100000000000000000000000000000000000E0
:100020000000000000000000000000007107000850
:1000300000000000000000007307000875070008BA
:10004000E521000800000000E5210008E521000886
:10005000E5210008E5210008E5210008E521000868
:1000600000000000E5210008E5210008E521000866
:10007000E521000879070008E521000800000000DC
:10008000E52100080000000000000000E521000854
:1000900000000000E5210008E5210008E521000836
:1000A00000000000E521000800000000E521000834
:1000B0000000000000000000000000000000000040
:1000C0000448054B10B5834203D0044B002B00D0ED
:1000D000984710BD08000020080000200000000024
:1000E00006480749091A8B10C90FC91810B54910DD
:1000F00003D0044B002B00D0984710BD080000200F
:10010000080000200000000010B5074C2378002BE9
:1001100009D1FFF7D5FF054B002B02D0044800E0C2
:1001200000BF0123237010BD080000200000000064
:10013000E8210008054B10B5002B03D00449054801
:1001400000E000BFFFF7CCFF10BDC046000000007C
:100150000C000020E821000870B50C4D0C4E761BF9
:10016000B61005D0002408CD01349847A642FAD134
:1001700002F03AF8074D084E761BB61005D0002461
:1001800008CD01349847A642FAD170BD4422000838
:10019000442200084422000848220008F0B5050067
:1001A00083074AD0541E002A44D0CEB20300032253
:1001B00002E00135013C3DD301332E701342F8D1EA
:1001C000032C2FD9FF220A40150215432A04154398
:1001D0000F2C35D92700103F3F093E01B4461E00C1
:1001E0001A0010366644156055609560D56010326F
:1001F000B242F8D10F260C2201373F012640DB190D
:100200003700224217D03E1FB608B400A4461A0099
:100210001C1D644420C2A242FCD103240136B60056
:100220009B193C40002C05D0C9B21C191970013330
:100230009C42FBD1F0BD3400F4E714000300BFE79B
:100240002700E0E7002243088B4274D303098B4266
:100250005FD3030A8B4244D3030B8B4228D3030C96
:100260008B420DD3FF22090212BA030C8B4202D338
:100270001212090265D0030B8B4219D300E0090A60
:10028000C30B8B4201D3CB03C01A5241830B8B4269
:1002900001D38B03C01A5241430B8B4201D34B0352
:1002A000C01A5241030B8B4201D30B03C01A5241B7
:1002B000C30A8B4201D3CB02C01A5241830A8B423C
:1002C00001D38B02C01A5241430A8B4201D34B0225
:1002D000C01A5241030A8B4201D30B02C01A524189
:1002E000CDD2C3098B4201D3CB01C01A524183093D
:1002F0008B4201D38B01C01A524143098B4201D377
:100300004B01C01A524103098B4201D30B01C01AA1
:100310005241C3088B4201D3CB00C01A524183081B
:100320008B4201D38B00C01A524143088B4201D348
:100330004B00C01A5241411A00D2014652411046A8
:100340007047FFE701B5002000F006F802BDC04687
:100350000029F7D076E770477047C04610B50268AD
:10036000034B9A4200D010BD00F0B0FFFBE7C0463F
:10037000002C014072B6FEE710B594B01C2200219B
:1003800009A8FFF70BFF10241022002104A8FFF793
:1003900005FF102200216846FFF700FF1223089393
:1003A000113B0B930D930C940E9401331093002387
:1003B0001193C02252031292139308A800F096FBE7
:1003C000002817D107230493053B059300230693C8
:1003D0000793012104A800F00FFE00280CD101238F
:1003E000009300230293684600F0D2FE002805D156
:1003F00014B010BDFFF7BEFFFFF7BCFFFFF7BAFF59
:1004000010B582B000F052FFFFF7B6FF00F028F8F9
:1004100000F058F800F012F900F054F901AB0D4A61
:100420001188198092789A7002210B4801F03EF8E9
:10043000FA230A4C9B00032201A9200001F09CFD35
:100440006423032201A9200001F014FD642000F0C0
:100450004FFFE9E70022000800040048AC0000203C
:1004600010B588B01422002103A8FFF797FE134BA4
:10047000596980208002014359615A690240019202
:10048000019A5A698021C9020A435A615B690B408B
:100490000293029B0A4C00220221200001F000F886
:1004A00002230393013B049300230593069303A9BE
:1004B000200000F02FFF08B010BDC0460010024021
:1004C0000004004800B585B00C22002101A8FFF708
:1004D00065FE1E481E4B0360002343608360C360BB
:1004E0000122026104214161037643768376C3765B
:1004F000C221FF31C16103629E39FF3943548262D8
:1005000000F096F9002817D10023019380235B01A6
:10051000029380235B05039301A90C4800F04AFA7B
:1005200000280CD10123019301A9084800F042FAE8
:10053000002807D105B000BDFFF71CFFE4E7FFF777
:1005400019FFEFE7FFF716FFF4E7C046240000208D
:100550000024014010B588B004001422002103A833
:10056000FFF71CFE2268124B9A4201D008B010BD62
:10057000104B996980208000014399619A6902407B
:100580000192019A5A69802189020A435A615B6982
:100590000B400293029B03230393049300230593D0
:1005A0007138FF3803A9C00500F0B4FEDEE7C0468D
:1005B000002401400010024082B00268074B9A42BA
:1005C00001D002B07047064AD16902231943D161B4
:1005D000D26913400193019BF3E7C0460004004039
:1005E0000010024010B586B004001422002101A8BA
:1005F000FFF7D4FD22680F4B9A4201D006B010BD20
:100600000D4A5169802080020143516153690340C2
:100610000093009B402301933E3B029300230393EE
:10062000049301330593902001A9C00500F072FEE8
:10063000E4E7C046000400400010024000B58BB063
:100640000822002108A8FFF7A9FD1C22002101A80B
:10065000FFF7A4FD1848194B036000234360836033
:10066000174AC2600361836101F066F900281AD15C
:1006700000230893099308A90F4801F041FA0028C4
:1006800014D1602301930023029303930593002266
:1006900001A9094801F0BCF900280AD10648FFF772
:1006A000A1FF0BB000BDFFF765FEE1E7FFF762FEBB
:1006B000E7E7FFF75FFEF1E7640000200004004079
:1006C000FFFF000010B50C480C4B036096231B0283
:1006D000436000238360C36003610C224261836135
:1006E000C3610362436201F01DFD002800D110BD0B
:1006F000FFF740FEFBE7C046AC0000200038014099
:1007000010B588B004001422002103A8FFF746FDAD
:100710002268144B9A4201D008B010BD124B99695F
:100720008020C001014399619A6902400192019AB7
:100730005A69802189020A435A615B690B4002931E
:10074000029B0C2303930A3B04930023059303337A
:100750000693023B0793902003A9C00500F0DAFD41
:10076000DAE7C0460038014000100240FEE7FEE72D
:10077000704770477047000010B5024800F0C0FF96
:1007800010BDC0463001002082B00A4B9969012299
:100790001143996199690A400092009ADA698021AF
:1007A00049050A43DA61DB690B400193019B02B002
:1007B0007047C0460010024000B587B0010000221B
:1007C0000D2000F07BFE0D2000F0A8FE134A916979
:1007D0008020000101439161936903400093009BD5
:1007E00001A902A800F0B8FC00F0A6FC0C49FFF734
:1007F00029FD431E0B480C4A02600C4AC26043604C
:1008000000230361836001F06BF8002802D001200F
:1008100007B000BD034800F043FFF9E700100240B5
:1008200040420F0030010020002C0140E70300008F
:1008300070B5041E00D1B4E0836B002B00D180E0C2
:10084000A36BDB0600D5A6E02268916804200500B2
:100850000D40084200D09EE0A16B534B1940063377
:10086000FF331943A163916801330B40012B6ED014
:10087000D36818218B43A1680B43D36022681369A6
:100880009B009B0861680B4313612268D36847494A
:100890000B40D360237E9B03627ED2031343A17E71
:1008A0004A031343A26A012A58D0802252011343FB
:1008B000E26813432269022A52D02B432422A25C0D
:1008C00052001343E27E012A4CD0E269C221FF317B
:1008D0008A4202D0216A0A4313432168CA681A4334
:1008E000CA60E26A802149058A420DD0012A0BD0F4
:1008F000022A09D0032A07D0042A05D0052A03D0EA
:10090000062A01D0072A0AD12068416907229143AB
:10091000416120684169E56A2A400A4342612268D0
:10092000D26823490A409A422BD0A36B12229343E8
:10093000023A1343A363E36B0F3A1343E3630120CB
:100940002EE0C36334228354FFF704FE78E7136874
:10095000DB079AD4D3681B0497D489E72A00A6E75B
:100960000425AAE7002903D1802252021343ACE7F1
:10097000A26B20210A43A263E26B1F390A43E263A0
:10098000A3E70023E363A36B03229343023A1343D9
:10099000A363002004E0A36B10221343A363012090
:1009A00070BD0120FCE7C046FDFEFFFF1902FEFFFF
:1009B000E7FF3F8330B583B0040000230193343355
:1009C000C35C012B00D182E034230122C2540368AE
:1009D0009A68520771D43F4A4868904254D09A6A44
:1009E00001200D68A84002439A62E36A8022520502
:1009F00093421ED0012B1CD0022B1AD0032B18D0EF
:100A0000042B16D0052B14D0062B12D0072B10D098
:100A100022685069072303408868984209D05069CA
:100A2000072398435061206842698D682B40134327
:100A300043610B681A00103A012A01D9002041E0F5
:100A4000254A1268102B09D08023DB031343224A66
:100A500013600B68102B04D0002033E080231B04AC
:100A6000F4E71E4B18681E49FFF7ECFB03008000FB
:100A7000C01840000190019B002B03D0019B013B5B
:100A80000193F8E700201DE09A6A01200D68A84054
:100A900082439A620B681A00103A012A01D9002099
:100AA00010E00D4A1268102B05D00E4B13400A4A75
:100AB0001360002006E00C4BF8E7836B2022134301
:100AC0008363012034230022E25403B030BD0220AE
:100AD000FBE7C04601100000082701400400002089
:100AE00040420F00FFFFBFFFFFFF7FFF70B582B0E6
:100AF000041E00D12EE20368DB0726D5AE4B5A68F0
:100B00000C231340042B18D0AB4B5A680C23134012
:100B1000082B0ED06368012B3CD0002B51D1A64B83
:100B20001A68A6490A401A601A68A5490A401A605C
:100B300036E0A14B5B68DB03ECD59F4B1B689B0346
:100B400003D56368002B00D107E223689B0772D5A9
:100B5000994B5B680C221A425DD0974B5A680C2364
:100B60001340082B53D0E368002B00D185E0924A54
:100B7000136801210B43136000F0B4FB05008E4B9A
:100B80001B689B0770D400F0ADFB401B0228F6D910
:100B90000320E0E1884A116880235B020B43136065
:100BA0006368002B25D000F09DFB0500824B1B687D
:100BB0009B03CAD400F096FB401B6428F6D903209F
:100BC000C9E1052B09D07C4B1A687C490A401A60A0
:100BD0001A687B490A401A60E2E7774B196880225D
:100BE000D2020A431A601968802252020A431A602C
:100BF000D6E700F077FB05006F4B1B689B03A4D57D
:100C000000F070FB401B6428F6D90320A3E16A4B77
:100C10005B68DB03A7D4684B1B689B0703D5E368BD
:100C2000012B00D09BE164490B68F82293432269B1
:100C3000D20013430B6023681B0744D5E369002BE4
:100C40002ED05D4A536A01210B43536200F04AFBE8
:100C50000500594B5B6A9B0735D400F043FB401BF2
:100C60000228F6D9032076E153490B68F822934312
:100C70002269D20013430B60DDE74F4A136801215C
:100C80008B43136000F02EFB05004B4B1B689B074A
:100C9000D1D500F027FB401B0228F6D903205AE1EA
:100CA000454A536A01218B43536200F01BFB050048
:100CB000414B5B6A9B0706D500F014FB401B0228E2
:100CC000F6D9032047E123685B0700D480E03A4B64
:100CD000DB69DB000BD4384AD16980204005014331
:100CE000D161D36903400193019B012500E00025F8
:100CF000344B1B68DB050ED5A368012B1FD0002BDE
:100D000034D12D4B1A6A01218A431A621A6A0331BF
:100D10008A431A6218E02B4A116880235B000B4358
:100D2000136000F0DFFA0600264B1B68DB05E3D4F6
:100D300000F0D8FA801B6428F6D903200BE11E4A84
:100D4000136A01210B431362A368002B24D000F027
:100D5000C9FA0600184B1B6A9B0737D400F0C2FA89
:100D6000801B194B9842F5D90320F4E0052B09D0DC
:100D7000114B1A6A01218A431A621A6A03318A43A3
:100D80001A62E1E70C4B1A6A04210A431A621A6AD2
:100D900003390A431A62D7E700F0A4FA0600064BAB
:100DA0001B6A9B0712D500F09DFA801B064B9842E8
:100DB000F5D90320CFE0C04600100240FFFFFEFF40
:100DC000FFFFFBFF0070004088130000012D33D0AF
:100DD0002368DB0610D56369012B33D0053351D16D
:100DE000654A536B04218B435363536BF4318B433C
:100DF000A169C9000B435363236A002B00D1B0E003
:100E00005D4A51680C220A40082A00D18AE0022B70
:100E10004FD0594A136859490B40136000F062FAE9
:100E20000400554B1B689B017AD500F05BFA001B50
:100E30000228F6D903208EE04F4AD36950490B406F
:100E4000D361C5E74C4B5A6B04210A435A635A6B72
:100E500003390A435A6300F045FA0500464B5B6BC1
:100E60009B0706D400F03EFA401B0228F6D9032067
:100E700071E041494B6BF8229343A269D2001343BE
:100E80004B63B9E73C4B5A6B04210A435A635A6BD4
:100E900003398A435A6300F025FA0500364B5B6B31
:100EA0009B07A9D500F01EFA401B0228F6D90320A3
:100EB00051E0314A136831490B40136000F012FAD7
:100EC00005002D4B1B689B0106D500F00BFA401B5B
:100ED0000228F6D903203EE0274BDA6A0F218A4325
:100EE000E16A0A43DA625A6826490A40A16A606ADE
:100EF00001430A435A601968802252040A431A6067
:100F000000F0F0F904001C4B1B689B0106D400F0B4
:100F1000E9F9001B0228F6D903201CE000201AE0A2
:100F2000002018E0012B1ED0134B5A68D96A802389
:100F30005B021340606A834217D10F230B40E16AC2
:100F40008B4214D1F0239B031A40A36A9A4210D11A
:100F5000002000E0012002B070BD0120FBE701206D
:100F6000F9E70020F7E70120F5E70120F3E701208A
:100F7000F1E70120EFE7C04600100240FFFFFFFE4F
:100F8000FFFFFFEFFFFFC2FF10B588B004AA164BAA
:100F900013CB13C21B6813606A46144B13CB13C2E6
:100FA0001B681360124B5A680C231340082B02D0A5
:100FB000104808B010BD910C0733194004A8445CD8
:100FC0000B49C96A0B406946C95CD30304D509487B
:100FD000FFF738F96043ECE763011B1B9801C01A67
:100FE000C00000190002E4E70422000818220008EB
:100FF0000010024000127A0070B504000D000028B5
:1010000000D17EE0434B1A68012313408B420AD281
:1010100040490B68012293432B430B600B681A4035
:10102000AA4200D06FE023689A070ED55B0705D56A
:10103000394A5168E023DB000B435360364A53685A
:10104000F0218B43A1680B4353602368DB072DD548
:101050006368012B1ED0022B22D02F4A1268920700
:1010600053D52D494A680320824313434B6000F057
:1010700039F90600284B5B680C221A4063689B0014
:101080009A4213D000F02EF9801B244B9842F1D9DC
:10109000032035E0204A12689203E2D401202FE0B9
:1010A0001D4A12689201DCD4012029E0194B1A680C
:1010B00001231340AB4209D916490B68012293431F
:1010C0002B430B600B681A40AA4220D123685B07B0
:1010D00006D5114A536812490B40E1680B4353602F
:1010E000FFF752FF0C4B5A6812090F2313400D4AA9
:1010F000D35CD8400C4B18600320FFF75DFB002049
:1011000070BD0120FCE70120FAE70120F8E701208B
:10111000F6E7C0460020024000100240881300009D
:10112000FFF8FFFF2C22000804000020014B186884
:101130007047C0460400002010B5FFF7F7FF044BCE
:101140005A68120A07231340024AD35CD84010BDE4
:10115000001002403C22000810B5072303600A4B30
:101160005C680322224042605C68F0222240826078
:101170005B68E022D2001340C360044B1A6801236D
:1011800013400B6010BDC04600100240002002401A
:1011900070B582B004000368DB0337D53D4BDB69D3
:1011A000DB0049D43B4AD169802040050143D1612D
:1011B000D36903400193019B0125374B1B68DB0575
:1011C0003CD5344B1A6AC0239B00110019401A42C7
:1011D00013D0626813408B420FD02E4B186A2F4AEF
:1011E00002401E6A8021490231431962196A2C4E5D
:1011F000314019621A62C30734D4264A136A274958
:101200000B4061680B431362012D3AD02368DB0762
:1012100006D5204A136B03218B43A1680B4313634C
:1012200023689B0632D51B4A136B10218B43E16860
:101230000B43136300202AE00025BEE7164A11681D
:1012400080235B000B43136000F04CF80600124B48
:101250001B68DB05B5D400F045F8801B6428F6D97F
:10126000032014E000F03EF806000A4B1B6A9B07BF
:10127000C3D400F037F8801B0A4B9842F5D90320FD
:1012800005E0D36908490B40D361BFE7002002B0F5
:1012900070BDC0460010024000700040FFFCFFFF20
:1012A000FFFFFEFF88130000FFFFFFEF10B5064AA7
:1012B000136810210B4313600320FFF77DFAFFF73B
:1012C00063FA002010BDC04600200240034A1168A6
:1012D000034B1B785B1813607047C04678010020F1
:1012E00000000020014B18687047C04678010020BC
:1012F00070B50400FFF7F6FF0500631C02D0044B35
:101300001B78E418FFF7EEFF401BA042FAD370BD34
:1013100000000020F0B583B0002357E084685F0030
:101320000326BE40B4432600CC68BC4034438460EE
:10133000446894434A681609012232409A40224385
:10134000426053E0DC080834A400265805321A40F5
:1013500092000F279740BE430F6997403A003243EF
:10136000225057E0032600E00026A64034003C430C
:1013700002329200444E9451444A1468EA432600D3
:10138000AE434F68FF0301D52C4326003F4C266037
:101390006468260016404F68BF0301D52C43260021
:1013A0003A4C6660A468260016404F68FF0201D5DB
:1013B0002C432600354CA660E46822404E68B602F5
:1013C00001D52A002243314CE26001330C6822002F
:1013D000DA4057D001229A40250015401442F4D03B
:1013E00003244E683440013C012C97D903224C68F9
:1013F0002240032A09D0C2685E000324B440A243FD
:1014000014008A68B2402243C26003224C68224022
:10141000022A97D004685E0003221700B740BC433D
:101420004F683A40B24022430260C02292024C68A8
:101430001442CAD0164CA66901221643A661A469BB
:1014400022400192019A9A08941CA4000E4EA759BA
:1014500003241C40A4000F26A640B7439026F6059F
:10146000B04281D00B4EB04208D00B4EB04207D0F4
:101470000A4EB04200D175E7052676E7012674E7EB
:10148000022672E703B0F0BD0000014000040140F5
:10149000001002400004004800080048000C00480A
:1014A000002A01D0816170478162FCE74269130024
:1014B0000B401B04914319438161704770B50028AC
:1014C00011DB8308134EC0339B009D590324204039
:1014D000C000FF2214008440A54389010A408240D5
:1014E0002A439A5170BD0F230340083B9B080633E3
:1014F0009B00094A944663445C6803221040C00084
:10150000FC3215008540AC4389010A4082402243E9
:101510005A60E7E700E100E000ED00E0002805DBAD
:101520001F2318401E3B8340014A13607047C0468A
:1015300000E100E030B5036A012293430362036ACD
:10154000426884697325AC430D682C430225AB4384
:101550008D682B43114DA84205D0114DA84202D0F1
:10156000104DA84205D10825AB43CD682B43042577
:10157000AB430A4DA84205D0094DA84202D0094DFF
:10158000A84205D1084D2A404D692A438D692A4356
:10159000426084614A684263036230BD002C0140AE
:1015A0000044014000480140FFFCFFFF70B5036AA2
:1015B000184A13400362036A4468C2697325AA4348
:1015C0000E681643144A13408A6812021343134AE2
:1015D000904216D0114A904205D0114A904202D052
:1015E000104A904207D1104A22404C69240114430A
:1015F0008A6915012C434460C6614A68C26303626C
:1016000070BD0A4A1A40CB681B021343084A1340B4
:10161000E0E7C046FFFEFFFFFFFDFFFF002C01409B
:101620000044014000480140FFCFFFFFFFF7FFFFEC
:10163000FFFBFFFF30B5036A114A13400362036AE0
:101640004568C2690F4C22400C68240222430E4CAC
:101650001C408B681B0323430C4CA04205D00C4C50
:10166000A04202D00B4CA04204D10B4C25404C6947
:10167000A40125434560C2614A680264036230BD2B
:10168000FFEFFFFFFF8CFFFFFFDFFFFF002C01409C
:101690000044014000480140FFBFFFFF70470000C9
:1016A0003D23C35C012B1FD13C330222C25402688C
:1016B000D36801210B43D36003680D4A934208D0DD
:1016C0000C4A934205D01A6801210A431A6000208F
:1016D0000BE0996807220A40062A07D01A68012100
:1016E0000A431A60002000E0012070470020FCE758
:1016F000002C01400004004070477047704770475D
:1017000010B5040003681A6992070FD5DA689207CA
:101710000CD5032252421A610123037703689B69A7
:101720009B0763D0FFF7E9FF0023237723681A693B
:10173000520712D5DA6852070FD5052252421A61B4
:101740000223237723689A69C0239B001A4253D04F
:101750002000FFF7D2FF0023237723681A691207BE
:1017600010D5DA6812070DD5092252421A610423F6
:1017700023772368DB699B0745D02000FFF7BDFF77
:101780000023237723681A69D20612D5DA68D206B5
:101790000FD5112252421A61082323772368DA6990
:1017A000C0239B001A4235D02000FFF7A6FF00237C
:1017B000237723681A69D20702D5DA68D20730D4B2
:1017C00023681A69120602D5DA68120630D4236833
:1017D0001A69520602D5DA68520630D423681A69AB
:1017E000920602D5DA68920630D410BDFFF784FF66
:1017F0002000FFF783FF97E72000FFF77DFF200021
:10180000FFF77CFFA7E72000FFF776FF2000FFF738
:1018100075FFB5E72000FFF76FFF2000FFF76EFFB1
:10182000C5E7022252421A612000FEF797FDC7E782
:10183000812252421A61200000F091F9C7E741224B
:1018400052421A612000FFF75AFFC7E72122524295
:101850001A61200000F082F9C7E7000003681A4A05
:10186000904202D0194A904203D1702293434A68B1
:101870001343154A90420BD0144A904208D0144AA0
:10188000904205D0134A904202D0134A904203D1AD
:10189000124A1340CA681343802293434A69134390
:1018A00003608B68C3620B688362074B984205D064
:1018B000084B984202D0084B984201D10B69036350
:1018C000012343617047C046002C014000040040E2
:1018D000002000400044014000480140FFFCFFFFA1
:1018E00070B5041E26D03D23C35C002B1CD03D25C3
:1018F00002236355210001C9FFF7B0FF01234622EF
:10190000A354083AA3540132A3540132A354013220
:10191000A3540132A3540132A3540132A35401321F
:10192000A3546355002070BD3C330022C254FFF71E
:10193000B5FEDCE70120F6E770B5041E26D03D2396
:10194000C35C002B1CD03D2502236355210001C937
:10195000FFF784FF01234622A354083AA35401321F
:10196000A3540132A3540132A3540132A3540132CF
:10197000A3540132A3540132A3546355002070BD17
:101980003C330022C254FEF717FEDCE70120F6E7E5
:1019900030B5036A102293430362036A4568846981
:1019A000164A14400A6812021443202293438A689C
:1019B00012011343124A904216D0114A904205D0A8
:1019C000104A904202D0104A904207D10F4A2A4052
:1019D0004D69AD0015438A699200154345608461E5
:1019E0004A688263036230BD802293431A00CB6849
:1019F0001B01134340229343DFE7C046FF8CFFFFE8
:101A0000002C01400044014000480140FFF3FFFF6B
:101A100070B504000D003C23C35C012B00D16AE0CB
:101A20003C230121C154082A50D01CD8002A38D0A8
:101A3000042A16D129000068FFF7AAFF22689169DD
:101A400080231B010B439361226893692B490B4050
:101A5000936121688B692A69120213438B6100200C
:101A60001BE0080019E00C2A16D129000068FFF7D6
:101A7000E1FD2268D16980231B010B43D3612268F9
:101A8000D3691E490B40D3612168CB692A691202D0
:101A90001343CB61002000E001203C230022E254EC
:101AA00070BD29000068FFF745FD22689369082191
:101AB0000B4393612268936904398B4393612268D5
:101AC000936929690B4393610020E6E729000068C8
:101AD000FFF76CFD2268D36908210B43D3612268AC
:101AE000D36904398B43D3612268D36929690B43D5
:101AF000D3610020D1E70220D2E7C046FFFBFFFF01
:101B000030B53C23C35C012B21D03C230122C254BD
:101B100001330132C25403685A689C687025AA4395
:101B20000D682A435A6003680A4A934202D00A4A5F
:101B3000934204D1802294434A6814439C603D231D
:101B40000122C254013B0022C254002030BD0220B9
:101B5000FCE7C046002C014000040040704770477D
:101B600010B5040083680269134342691343C269D4
:101B7000134301680A684A48024013430B60226815
:101B8000536848490B40E1680B435360226AA369DC
:101B90001A4321688B684448034013438B60434BCE
:101BA0001A6B03231340022B27D022D8002B26D0F8
:101BB000012B26D10333E06980221202904224D007
:101BC000042B65D054D8002B5CD0022B4ED1384862
:101BD00063685B0818186168FEF734FB0004000CAA
:101BE0000200103A334B9A4257D82368D86000203D
:101BF00044E0032B07D1013BDDE70823DBE70023AB
:101C0000D9E71023D7E71023D5E7042B2BD020D812
:101C1000002B22D0022B1AD12548400063685B08B4
:101C2000C0186168FEF70EFB83B20004000C0100CF
:101C30001039204A91422ED80F2293431A004008AF
:101C40000723184010432368D860002016E00120C5
:101C500014E0082BE1D0012010E0FFF76DFA002816
:101C6000DBD100200AE0FFF78FF9F8E7012005E05B
:101C7000082B02D180200002AAE70120002363661E
:101C8000A36610BDFFF758FA0028A1D10020F5E7A0
:101C9000FFF77AF9F8E70120F0E70120EEE7C04608
:101CA000F369FFFFFFCFFFFFFFF4FFFF00100240CB
:101CB00000127A00EFFF0000436ADB0706D50268D6
:101CC00053682C490B40816A0B435360436A9B075E
:101CD00006D50268536828490B40C16A0B4353601C
:101CE000436A5B0706D50268536824490B40016BC1
:101CF0000B435360436A1B0706D5026853682049AB
:101D00000B40416B0B435360436ADB0606D5026808
:101D100093681C490B40816B0B439360436A9B069D
:101D200006D50268936818490B40C16B0B4393605A
:101D3000436A5B060BD50268536814490B40016C7B
:101D40000B43536080235B03026C9A420AD0436AC0
:101D50001B0606D5026853680D490B40816C0B4386
:101D600053607047026853680A490B40416C0B434B
:101D70005360ECE7FFFFFDFFFFFFFEFFFFFFFBFFF0
:101D8000FF7FFFFFFFEFFFFFFFDFFFFFFFFFEFFF23
:101D9000FFFFF7FFFFFF9FFFF8B5CE46474680B530
:101DA00006000D0017009946089B98463368DC69C9
:101DB0002C40641B63425C41BC4253D14346013317
:101DC000F4D0FFF78FFA4B46C01A40452CD8434653
:101DD000002B29D033681A685207E7D5DA69120553
:101DE000E4D5802212011A62EFF31080012282F3FF
:101DF000108831680B681E4C23400B6080F31088FC
:101E0000EFF3108082F3108831688B6893438B6006
:101E100080F310882023B367F3677F32B3505433C5
:101E20000022F25403201EE0EFF31080012282F31F
:101E3000108831680B680E4C23400B6080F31088CB
:101E4000EFF3108082F3108831688B6893438B60C6
:101E500080F310882023B367F36754330022F254D1
:101E6000032000E000200CBC90469946F8BDC04617
:101E70005FFEFFFFF0B5C64600B582B004000D005E
:101E800090461E00836F202B66D1002969D0002A5E
:101E900069D080235B0182689A421ED07423E35C80
:101EA000012B62D074230122E2540C330022E25051
:101EB0005F3BA367FFF716FA070050234246E25242
:101EC0000233E25280235B01A2689A420CD00023C5
:101ED000984674230022E2541DE00369002BDDD1F3
:101EE000CB07DBD5012038E02369002B02D000238B
:101EF0009846EEE7A8460025EBE743461B88DB053E
:101F0000DB0D2268138502239C46E0445223E25AEB
:101F1000013A92B2E2525223E35A9BB2002B0FD005
:101F200000963B00002280212000FFF735FF0028AB
:101F30001DD1002DE1D02B78226813850135E5E70E
:101F400000963B00002240212000FFF725FF0028DB
:101F50000FD12023A36700E0022002B004BC90460A
:101F6000F0BD0120F9E70120F7E70220F5E70320A3
:101F7000F3E70320F1E70000F0B5C64600B584B0F2
:101F800004000E0015001F00C36F202B00D081E05D
:101F9000002900D183E0002A00D182E080235B0188
:101FA00082689A4222D07423E35C012B00D17AE04C
:101FB00074230122E25400237F32A3505E3AE26789
:101FC0002366FFF78FF980465823E5520233E55226
:101FD000A3688022520193420FD0002B1CD12269AA
:101FE000002A15D15C32FF21A15218E00369002BB1
:101FF000D9D1CB07D7D501204DE02269002A03D1E2
:102000005C322B49A1520AE05C22FF21A15206E07A
:102010005C227F21A15202E05C220021A1525C22BD
:10202000A25A039280225201934204D000257423C5
:102030000022E25412E02369002B01D00025F6E7CC
:1020400035000026F3E723689B8C039A13402B800E
:1020500002355A23E25A013A92B2E2525A23E35A23
:102060009BB2002B12D00097434600222021200073
:10207000FFF792FE002818D1002EE4D023689B8C35
:102080006A46127B134033700136E2E72033E36780
:10209000002000E0022004B004BC9046F0BD012006
:1020A000F9E70120F7E70220F5E70320F3E7C04650
:1020B000FF01000030B583B0040080230022C2502D
:1020C000FFF710F9050023681B681B070DD4236870
:1020D0001B685B0716D42023A367E36700232366EE
:1020E0007422A354002003B030BD80210C4B009318
:1020F0000300002289032000FFF74EFE0028E6D0EF
:102100000320F0E78021064B00932B000022C90337
:102110002000FFF741FE0028DDD00320E3E7C046A2
:10212000FFFFFF0110B5041E2ED0836F002B21D0BE
:102130002423A3672268136801218B4313602000C6
:10214000FFF70EFD012814D0636A002B18D1226816
:1021500053680E490B4053602268936808218B43F3
:1021600093602268136807390B4313602000FFF760
:10217000A1FF10BD74330022C254FEF7C1FAD7E7A5
:102180002000FFF799FDE2E70120F2E7FFF7FFFFEC
:10219000704700000D4885460D480E490E4A002341
:1021A00002E0D458C4500433C4188C42F9D30B4A0B
:1021B0000B4C002301E013600432A242FBD3FFF773
:1021C000E7FFFDF7C9FFFEF71BF9FEE7001000204F
:1021D00000000020080000204C2200080800002019
:1021E0007C010020FEE70000F8B5C046F8BC08BC42
:1021F0009E467047F8B5C046F8BC08BC9E4670477E
:102200000000000002030405060708090A0B0C0D74
:102210000E0F10100000000001020304050607085D
:10222000090A0B0C0D0E0F1000000000000000004A
:102230000000000001020304060708090000000076
:042240000102030490
:042244003501000858
:042248000901000880
:08224C000100000000127A00FD
:040000050800219539
:00000001FF
